:1000000000800010F50000004D01000053010000C9
:10001000590100005F0100006501000000000000C0
:100020000000000000000000000000006B01000064
:100030007101000000000000770100007D01000058
:1000400083010000830100008301000083010000A0
:100050008301000083010000830100008301000090
:100060008301000083010000830100008301000080
:100070008301000083010000830100008301000070
:100080008301000083010000830100008301000060
:100090008301000083010000830100008301000050
:1000A0008301000083010000830100008301000040
:1000B0008301000083010000830100008301000030
:1000C000830100008301000083010000243300004D
:1000D00000000010040000002433000000C00720CE
:1000E0000000000004000010EC07000000C0072022
:1000F0000000000080B582B000AF0F4B7B600F4B5B
:100100003B6007E07A68131D7B603B68191D39600E
:1001100012681A603B680A4A9342F3D309480A49B5
:100120004FF000028842B8BF40F8042BFADB00F021
:1001300003FA00F099F9FEE72433000000000010F4
:100140000400001004000010F007001080B400AF9D
:10015000FEE780B400AFFEE780B400AFFEE780B4F6
:1001600000AFFEE780B400AFFEE780B400AFFEE76B
:1001700080B400AFFEE780B400AFFEE780B400AF0C
:10018000FEE780B400AFFEE780B58AB002AF7860CA
:10019000274BBB60274BFB60274B3B61274B7B61A9
:1001A000012000F0ABFD0023FB610023BB6116E0E2
:1001B000FB69DBB20133D9B2BB699B0007F12002B6
:1001C000134453F8182C012300930023012000F05E
:1001D00033FEBB690133BB61FB690833FB61BB695B
:1001E000032BE5DD7B681B68032B02DD7B680022A7
:1001F0001A607B681B68002B02DA7B6803221A6096
:100200007B681B68DBB2DB00D9B27B681B689B0094
:1002100007F12002134453F8182C00230093012304
:10022000012000F009FE00BF2037BD4680BD00BFA1
:10023000182E0000242E0000302E0000402E00005A
:1002400080B588B000AF0223BB7000233B71002350
:10025000FB7000233B7007237B703B46184601F080
:1002600055FC08237B703B46184601F04FFC0923E0
:100270007B703B46184601F049FC0023BB7002230B
:100280003B7002237B703B46184601F03FFC07F1B0
:100290000803184601F02EFD07F10803194605482A
:1002A00001F0BAFC0121034801F042FD00BF2037F4
:1002B000BD4680BD0000034080B582B000AF022380
:1002C000BB700A237B7000233B703B46184601F04D
:1002D0001DFC0B237B703B46184601F017FC0649BA
:1002E000064801F02BF90121044801F079F900BF1B
:1002F0000837BD4680BD00BFA086010000000A404F
:1003000080B582B000AF0123BB7000233B71002396
:10031000FB7017237B7000233B703B46184601F0AF
:10032000F5FB0949094800F0B1FD0022002107480A
:1003300000F0F4FD01220021044800F03DFE00BF62
:100340000837BD4680BD00BF400D0300004003409C
:1003500080B584B000AF0223BB7200237B72002300
:100360003B7207F10803184601F0D0FB01237B72B2
:1003700007F10803184601F0C9FB4FF4E1333B6075
:1003800003237B7100233B710023BB713B4619465D
:10039000054802F03DF80121034802F055FA00BF7C
:1003A0001037BD4680BD00BF00C0094080B584B095
:1003B00000AF0346FB710B46BB8013467B800023D6
:1003C000FB600AE0FB79154A9B011A44FB68134461
:1003D00041221A70FB680133FB60FB683F2BF1DDA3
:1003E000FB799B010D4A13447A88B988184600F0BE
:1003F000E9F903467B817B89402B02D04FF0FF3324
:1004000007E0074B1A887B8913449AB2044B1A8081
:10041000002318461037BD4680BD00BF700700108E
:100420003804001080B584B000AF0346FB710B4662
:10043000BB8013467B80FB799B010A4A13447A8870
:10044000B988184600F07CF90346FB81FA897B885D
:100450009A4202D04FF0FF3300E0002318461037D5
:10046000BD4680BD7007001080B584B000AF00238A
:10047000FB60FFF76DFFFFF71FFFFFF7E1FEFFF7E0
:100480003FFF00F059FB00F017FA2349234802F020
:100490003FFA234B1B88402219460020FFF786FFB6
:1004A0000346002B05D01F491C4802F031FA0123F6
:1004B0002EE0402200210120FFF7B4FF0346002B6D
:1004C00005D01949154802F023FA012320E0002342
:1004D0007B603B1D1846FFF757FE00F0FCF9034612
:1004E000FB72FB7A022B0AD0042B00D00FE07B6852
:1004F00001337B603B1D1846FFF746FE07E07B6833
:10050000013B7B603B1D1846FFF73EFE00BFE4E762
:1005100018461037BD4680BD3C2F000000C0094082
:1005200038040010582F0000742F000080B483B0EE
:1005300000AF78603960FEE780B400AF4B4B2022FB
:10054000C3F8A02100BF494BD3F8A03103F040030A
:10055000002BF8D0454B0322C3F80421434B002263
:10056000C3F8A821414B0022C3F8AC213F4B012224
:10057000C3F80C213D4B3E4AC3F884203B4BAA22D2
:10058000C3F88C20394B5522C3F88C20374B0122FD
:10059000C3F88020354BAA22C3F88C20334B552258
:1005A000C3F88C2000BF314BD3F8883003F0806350
:1005B000002BF8D02D4B0322C3F880202B4BAA220E
:1005C000C3F88C20294B5522C3F88C2000BF274B41
:1005D000D3F8883003F04073002BF8D0234B23224C
:1005E000C3F8A420214BAA22C3F8AC201F4B5522EC
:1005F000C3F8AC201D4B0122C3F8A0201B4BAA223C
:10060000C3F8AC20194B5522C3F8AC2000BF174BE0
:10061000D3F8A83003F48063002BF8D0134B0322E7
:10062000C3F8A020114BAA22C3F8AC200F4B5522CF
:10063000C3F8AC2000BF0D4BD3F8A83003F44073CF
:10064000002BF8D0094B0B4AC3F8C420074B0022FB
:10065000C3F8C821054B1B6823F47043034A43F4D5
:100660008043136000BFBD4680BC704700C00F4090
:1006700063000500DE87280480B590B000AF034614
:10068000B9607A60FB73FB7B7B610023BB61002355
:10069000FB61BB687B627B68BB6203233B6307F142
:1006A000140300221946074801F016F80346012BEF
:1006B00001D1002301E04FF0FF3318464037BD461B
:1006C00080BD00BF00000A4080B590B000AF034677
:1006D000B9607A60FB73FB7B7B61BB68BB617B6845
:1006E000FB6100237B620023BB6203233B6307F1B2
:1006F000140300221946074800F0EEFF0346012BC1
:1007000001D1002301E04FF0FF3318464037BD46CA
:1007100080BD00BF00000A4080B483B000AF00235A
:100720007B6000237B6002E07B6801337B607B6839
:10073000B3F5003FF8DB00BF0C37BD4680BC704707
:1007400080B584B000AF78600B467B8013463B8059
:100750000023FB720023FB607B883B813B88B3F561
:10076000806F05D87A883B881344B3F5806F02DD2B
:100770004FF0FF3322E07B881B0A9BB2DBB2503381
:10078000FB727B88DBB29BB23B8107F10801FB7AED
:1007900001221846FFF798FF0023FB6002E0FB6888
:1007A0000133FB60FB68B3F5005FF8DB3A88FB7A46
:1007B00079681846FFF760FFB7F900301846103720
:1007C000BD4680BD80B58AB000AF78600B467B80A7
:1007D00013463B80002387F827300023BB84002387
:1007E0007B847B883B843B88B3F5806F05D87A880F
:1007F0003B881344B3F5806F02DD4FF0FF3357E0C1
:100800007B881B0A9BB2DBB2503387F827307B888A
:10081000DBB23B843B8C1B099BB201339BB21B01B7
:100820009AB23B8CD31A7B843A887B8C934228BF44
:1008300013467B8437E03B8CDBB23B73B7F9243043
:100840007A68D1187A8C07F10C030133184602F04C
:10085000F5F97B8C01331A4607F10C0197F8273024
:100860001846FFF731FFFFF757FF3A887B8CD31A02
:100870003B80BA8C7B8C13449BB2BB843A8C7B8CC0
:1008800013443B843B88102B28BF10237B843B8C74
:100890001B0A9BB2DAB297F82730134487F8273047
:1008A0003B8CDBB23B843B88002BC4D1B7F92430AE
:1008B00018462837BD4680BD80B500AF00224FF4F2
:1008C0006031002000F0AAFC00221821022000F074
:1008D000A5FC00BF80BD80B584B000AF0023FB73D2
:1008E0000023BB6000237B60002000F0E6FCB860C2
:1008F000022000F0E2FC7860BB6803F40033002BB8
:1009000003D1FB7B43F00103FB73BB6803F400439B
:10091000002B03D1FB7B43F00403FB73BB6803F4A0
:100920008033002B03D1FB7B43F01003FB737B6808
:1009300003F00803002B03D1FB7B43F00203FB739E
:100940007B6803F01003002B03D1FB7B43F008030B
:10095000FB73FB7B18461037BD4680BD80B588B061
:1009600000AF0346FB718021022000F091FC402182
:10097000002000F08DFCFB1DBB6000233B610123C8
:10098000BB6107F1080300221946054801F044FA4B
:100990004021002000F067FC00BF2037BD4680BD2D
:1009A0000000034080B588B000AF0346FB71802192
:1009B000022000F058FC4021002000F069FCFB1DE3
:1009C000BB6000233B610123BB6107F108030022E8
:1009D0001946054801F020FA4021002000F043FCB0
:1009E00000BF2037BD4680BD0000034080B5ACB0DD
:1009F00000AF03463960FB710023C7F8AC300BE051
:100A000007F12002D7F8AC301344FA791A70D7F8FE
:100A1000AC300133C7F8AC30D7F8AC303A689A4202
:100A2000EED88021022000F01EFC4021002000F0C2
:100A30002FFC07F12003BB6000233B613B68BB61D7
:100A400007F1080300221946054801F0E5F94021A5
:100A5000002000F008FC00BFB037BD4680BD00BFDD
:100A60000000034080B500AF0220FFF777FF12209F
:100A7000FFF774FF4020FFF771FF2E20FFF76EFF96
:100A80008120FFF76BFF3220FFF768FF8220FFF71E
:100A900065FF8020FFF762FFA120FFF75FFFA62020
:100AA000FFF75CFFA820FFF759FF3F20FFF756FF35
:100AB000D320FFF753FF4020FFF750FFAD20FFF793
:100AC0004DFF8E20FFF74AFFC820FFF747FFD520D4
:100AD000FFF744FFF020FFF741FFD820FFF73EFF6C
:100AE0000520FFF73BFFD920FFF738FFF120FFF784
:100AF00035FFDA20FFF732FF1220FFF72FFFDB2050
:100B0000FFF72CFF3420FFF729FF9120FFF726FF86
:100B10003F20FFF723FF3F20FFF720FF3F20FFF795
:100B20001DFF3F20FFF71AFFAF20FFF717FFA4209C
:100B3000FFF714FF00BF80BD80B582B000AF002377
:100B40007B6001220221022000F068FB012280214B
:100B5000022000F063FB01224021002000F05EFB38
:100B60000221022000F094FB4021002000F07BFBDA
:100B7000FFF778FF4FF4407200210B4802F0D4F8E1
:100B800000237B6002E07B6801337B607B684FF66B
:100B9000FE729342F7DD0221022000F064FB00BFE9
:100BA0000837BD4680BD00BF3C04001080B586B04C
:100BB00000AF0346FB710B46BB7113467B710023EC
:100BC0003B61FB79602B00F29180BB79402B00F2F6
:100BD0008F80BB79072B02D8B023FB7525E0BB794A
:100BE0000F2B02D8B123FB751FE0BB79172B02D85E
:100BF000B223FB7519E0BB791F2B02D8B323FB7519
:100C000013E0BB79272B02D8B423FB750DE0BB7929
:100C10002F2B02D8B523FB7507E0BB79372B02D801
:100C2000B623FB7501E0B723FB75FB799BB212334A
:100C3000FB81FB89DBB203F00F037B73FB891B098C
:100C40009BB2DBB243F010033B73BB79DB08DBB232
:100C5000FB81FB89DB00FB81BB799AB2FB89D31A4C
:100C6000FB81FB89012202FA03F3FB72FB7D18462C
:100C7000FFF774FE7B7B1846FFF770FE3B7B184640
:100C8000FFF76CFEFB7DA3F1B00213465B0013443B
:100C90005B011A46FB7913443B617B79002B0CD036
:100CA000154A3B6913441A78FB7A1343D9B2124AA6
:100CB0003B6913440A461A7010E00F4A3B6913441B
:100CC0001B785AB297F90B30DB435BB213405BB22F
:100CD000D9B2094A3B6913440A461A70064A3B696D
:100CE00013441B781846FFF75DFE02E000BF00E0EA
:100CF00000BF1837BD4680BD3C04001080B584B0ED
:100D000000AF0346FB710023BB73FB79012B01D1BC
:100D1000FF23BB73B023FB7311E0FB7B1846FFF787
:100D20001DFE0020FFF71AFE1020FFF717FEBB7B09
:100D300084211846FFF75AFEFB7B0133FB73FB7BD4
:100D4000B72BEAD9BB7B4FF440721946034801F038
:100D5000EBFF00BF1037BD4680BD00BF3C04001054
:100D600090B585B000AF0446084611461A462346A2
:100D7000FB710346BB710B467B7113463B7100232D
:100D80003B730023FB730023BB7300237B73FB794E
:100D9000572B02D8BB79372B01D9002343E07B794D
:100DA0001F2B03D997F90530002B01DA20237B7123
:100DB0007B79203B7B710023FB7330E07A79FB7BEE
:100DC0001B49D2000A4413441B783B730023BB73B6
:100DD00019E0BB7B174AD25C3B7B1340DBB2002B94
:100DE00003D197F820307B7301E03B797B737A7BEA
:100DF000B979FB791846FFF7D9FEFB790133FB710E
:100E0000BB7B0133BB73BB7B052BE2D9BB790133C1
:100E1000BB71FB79063BFB71FB7B0133FB73FB7BF7
:100E2000072BCBD9012318461437BD4690BD00BF10
:100E3000BC2F0000B42F000090B585B002AF3A601F
:100E40001A460346FB710B46BB7113467B713B6828
:100E50001B78002B12D03B685A1C3A601A787C79B8
:100E6000B979F8793B7E00932346FFF779FF034673
:100E7000002B05D0FB790633FB71E8E700BF00E0EB
:100E800000BF00BF0C37BD4690BDFFFF80B586B0E8
:100E900000AF786039607B681D4A934203D04221DD
:100EA0001C48FFF743FB3B68002B03D03B681A4A02
:100EB000934203D943211748FFF738FB01214FF430
:100EC000805000F047F97B6800221A604FF400134D
:100ED0007B61182000F00CF938613A6813469B01D9
:100EE0001344FB603B695A00FB681A44FB685B00D3
:100EF000B2FBF3F3013BFB60FB681B027A6913430F
:100F00007B617B687A691A6000BF1837BD4680BD77
:100F100000400340BC320000400D030080B582B0A9
:100F200000AF78600B46FB701346BB707B68204AAD
:100F3000934203D0DB211F48FFF7F8FAFB78002B20
:100F40001BD0FB78012B18D0FB78022B15D0FB7837
:100F5000032B12D0FB78042B0FD0FB78052B0CD081
:100F6000FB78062B09D0FB78072B06D0FB78082BE3
:100F700003D0DC210F48FFF7D9FA7B68DA68FB78E9
:100F8000012101FA03F3DB431A407B68DA60BB7886
:100F9000002B08D07B68DA68FB78012101FA03F3A3
:100FA0001A437B68DA6000BF0837BD4680BD00BFCA
:100FB00000400340BC32000080B582B000AF7860D2
:100FC0000B46FB701346BB707B68114A934203D0FB
:100FD000EE211048FFF7AAFABB78012B09D17B68F4
:100FE0001A68FB78012101FA03F31A437B681A603F
:100FF00009E07B681A68FB78012101FA03F3DB43FF
:101000001A407B681A6000BF0837BD4680BD00BF2C
:1010100000400340BC32000080B485B000AF78606F
:1010200039607B681F2B02D97B68203B00E07B681E
:10103000FB607B681F2B18D81A4BD3F8A83103210B
:10104000FA6801FA02F2D2431146164A0B40C2F87E
:10105000A831144BD3F8A8213968FB6801FA03F3CF
:1010600010491343C1F8A83117E00E4BD3F8AC3147
:101070000321FA6801FA02F2D2431146094A0B40F1
:10108000C2F8AC31074BD3F8AC213968FB6801FAE0
:1010900003F304491343C1F8AC3100BF1437BD4614
:1010A00080BC704700C00F4080B485B000AF78604E
:1010B0007B681F2B06D87B68FB600C4BD3F8A831EC
:1010C000BB6006E07B68203BFB60084BD3F8AC318B
:1010D000BB60BA68FB6822FA03F303F00303BB604A
:1010E000BB6818461437BD4680BC704700C00F402F
:1010F00080B584B000AF7860154B1B68BB60786822
:10110000FFF7D2FFF860FB68032B17D801A252F853
:1011100023F000BF251100002B1100003111000049
:10112000371100000423FB6008E00123FB6005E0A9
:101130000223FB6002E00823FB6000BFBA68FB6883
:10114000B2FBF3F3BB60BB6818461037BD4680BDE9
:101150000000001080B483B000AF78600B46FB70D5
:10116000FB78012B0AD10F4BD3F8C42079680E4BC2
:101170000B400C491343C1F8C4300DE0FB78002B41
:101180000AD1084BD3F8C4207B68DB431A400549D9
:10119000054B1340C1F8C43000BF0C37BD4680BCBE
:1011A000704700BF00C00F40DEF7EFEF80B485B09E
:1011B00000AF0346FB710023FB60FB79042B1CD8B6
:1011C00001A252F823F000BFDD110000E31100007E
:1011D000E9110000EF110000F51100000A4BFB605F
:1011E0000CE00A4BFB6009E0094BFB6006E0094B91
:1011F000FB6003E0084BFB6000E000BFFB681846A3
:101200001437BD4680BC704700C0092020C00920AB
:1012100040C0092060C0092080C0092080B584B08A
:1012200000AF03463960FB711346BB71FB7918466A
:10123000FFF7BCFFF860FB68002B10D0BB79002BD8
:1012400006D0FB681A683B681A43FB681A6006E020
:10125000FB681A683B68DB431A40FB681A6000BFF2
:101260001037BD4680BD80B584B000AF03463960FD
:10127000FB71FB791846FFF799FFF860FB68002BBC
:1012800002D0FB683A689A6100BF1037BD4680BD46
:1012900080B584B000AF03463960FB71FB79184616
:1012A000FFF784FFF860FB68002B02D0FB683A6808
:1012B000DA6100BF1037BD4680BD80B584B000AF95
:1012C0000346FB71FB791846FFF770FFF860FB6877
:1012D000002B02D0FB685B6900E000231846103742
:1012E000BD4680BD80B483B000AF0346FB71FB797F
:1012F00003F01F03012202FA03F1054A97F90730B0
:101300005B0942F8231000BF0C37BD4680BC704714
:1013100000E100E080B483B000AF0346FB71FB79CD
:1013200003F01F03012202FA03F1064A97F907307E
:101330005B09203342F8231000BF0C37BD4680BC48
:10134000704700BF00E100E080B483B000AF786078
:101350007B680C4A934201D100230DE07B680A4A66
:10136000934201D1012307E07B68084A934201D1EF
:10137000022301E04FF0FF3318460C37BD4680BC16
:10138000704700BF00C0014000C0054000000A4097
:1013900080B483B000AF78607B6820221A607B68DD
:1013A00008229A6100BF7B681B6803F00803002BCA
:1013B000F9D07B6820229A617B685B6803F0F803B0
:1013C00018460C37BD4680BC704780B483B000AF70
:1013D00078607B681B6803F02003002B02D07B68D9
:1013E00020229A617B6810221A607B6808229A6129
:1013F00000BF0C37BD4680BC704780B483B000AFDF
:1014000078600B46FB707B681B6803F02003002BA1
:1014100002D07B6820229A61FA787B689A607B68A8
:1014200008229A6100BF7B681B6803F00803002B49
:10143000F9D07B685B6803F0F80318460C37BD46AB
:1014400080BC704780B485B000AFF860B9601346C7
:10145000FB71FB79012B03D1FB6804221A6002E0C7
:10146000FB6804229A61FB6808229A6100BFFB684E
:101470001B6803F00803002BF9D0FB689B68DAB205
:10148000BB681A70FB685B6803F0F80318461437F2
:10149000BD4680BC7047FFFF80B584B000AF786068
:1014A00039607B68214A93420BD07B68204A934283
:1014B00007D07B681F4A934203D0DF211E48FFF705
:1014C00035F87B68194A934208D10E20FFF710FEC9
:1014D00002463B68B2FBF3F3FB6018E07B68144AFA
:1014E000934208D12620FFF703FE02463B68B2FB79
:1014F000F3F3FB600BE07B680E4A934207D1342084
:10150000FFF7F6FD02463B68B2FBF3F3FB60FB68B6
:101510005A087B681A617B681B69FA68D21A7B6873
:101520005A6100BF1037BD4680BD00BF00C00140FA
:1015300000C0054000000A40D432000080B582B0EF
:1015400000AF786039607B68214A93420CD07B6899
:10155000204A934208D07B681F4A934204D040F24D
:1015600007111E48FEF7E2FF7B68194A934208D133
:1015700001218020FFF7EEFD02210E20FFF74CFD38
:101580001AE07B68134A934209D101214FF40020ED
:10159000FFF7E0FD02212620FFF73EFD0CE07B680F
:1015A0000D4A934210D101214FF08060FFF7D2FD28
:1015B00002213420FFF730FD39687868FFF76CFFAF
:1015C0007B6864229A6100E000BF0837BD4680BD99
:1015D00000C0014000C0054000000A40D4320000B5
:1015E00080B582B000AF78600B46FB70FB78002BB3
:1015F00007D0FB78012B04D04FF4AC711048FEF7F4
:1016000095FF7B680F4A93420CD07B680E4A934249
:1016100008D07B680D4A934204D040F25911084823
:10162000FEF784FFFB78012B03D17B6840221A6010
:1016300002E07B6840229A6100BF0837BD4680BD4A
:10164000D432000000C0014000C0054000000A4044
:1016500080B582B000AF78600B46FB70FB78002B42
:1016600017D07B68194A934203D10A20FFF73AFE4C
:1016700027E07B68164A934203D10B20FFF732FE26
:101680001FE07B68134A93421BD10C20FFF72AFE10
:1016900017E07B680D4A934203D10A20FFF73AFE18
:1016A0000FE07B680A4A934203D10B20FFF732FE1A
:1016B00007E07B68074A934203D10C20FFF72AFE1C
:1016C00000BF00BF0837BD4680BD00BF00C001405D
:1016D00000C0054000000A4080B588B000AFF86047
:1016E000B9601346FB71BB685B68FB61BB681B6933
:1016F000BB61BB680022DA60BB6800229A61BB68EC
:1017000000225A62FB79002B40F02481BB68002242
:101710001A62BB685B68FB61BB681B69BB61BB6825
:101720000022DA60BB6800229A6100237B61F868BE
:10173000FFF72EFE78617B69082B11D07B69102B97
:101740000ED0BB681B6A5A1CBB681A62BB681A6A57
:10175000BB68DB699A42DCD9BB687A695A62F4E0FB
:10176000BB689B68002B4AD0BB685B68002B46D0E7
:10177000BB681B68DBB25B00DBB21946F868FFF799
:101780003CFE78617B69182B33D0BB681B6A5A1CFE
:10179000BB681A62BB681A6ABB68DB699A42B8D92F
:1017A0007B6943F40072BB685A62CEE0FB691B7828
:1017B0001946F868FFF721FE78617B69282B10D065
:1017C000BB681B6A5A1CBB681A62BB681A6ABB6892
:1017D000DB699A429DD97B6943F40072BB685A6207
:1017E000B3E0FB690133FB61BB68DB685A1CBB6873
:1017F000DA60BB68DA68BB689B689A42D6D3BB687C
:101800009B68002B25D0BB685B68002B21D0BB6890
:101810005B69002B1DD0BB681B69002B19D0F868D1
:10182000FFF7B6FD78617B69082B12D07B69102B1E
:101830000FD0BB681B6A5A1CBB681A62BB681A6A65
:10184000BB68DB699A427FF664AFBB687A695A620B
:101850007BE0BB685B69002B72D0BB681B69002B07
:101860006ED0BB681B68DBB25B00DBB243F00103E8
:10187000DBB21946F868FFF7C0FD78617B69402B41
:1018800058D0BB681B6A5A1CBB681A62BB681A6ACC
:10189000BB68DB699A427FF63CAF7B6943F4007218
:1018A000BB685A6251E0BB689A69BB685B69013BDF
:1018B0009A421AD207F1130301221946F868FFF77A
:1018C000C1FD78617B69502B2AD0BB681B6A5A1C0A
:1018D000BB681A62BB681A6ABB68DB699A427FF60A
:1018E00018AFBB687A695A622FE007F11303002230
:1018F0001946F868FFF7A6FD78617B69582B0FD071
:10190000BB681B6A5A1CBB681A62BB681A6ABB6850
:10191000DB699A427FF6FDAEBB687A695A6214E0D1
:10192000BB695A1CBA61FA7C1A70BB689B695A1C65
:10193000BB689A61BB689A69BB685B699A42B2D31B
:10194000F868FFF742FD012326E0F868FFF73DFD48
:10195000002321E0FB79012B1DD1F868FFF7F4FC8F
:101960000346DBB2FB74FB7C1946BB680C4A42F8A9
:101970003130FB7C0A4ADB00134400225A60FB68CA
:1019800008229A61FB6820221A600121F868FFF79B
:101990005FFE012300E0002318462037BD4680BDCE
:1019A0003C07001080B487B000AF0346FB710B46C4
:1019B000BB7113467B71BB797B61FB795B003B613B
:1019C000174BFB607B690F2B05D97B69103B7B6153
:1019D0003B6901333B613B699B00FA68134419681A
:1019E0007B695B00032202FA03F3DA433B699B0045
:1019F000F86803440A401A603B699B00FA68134484
:101A000019687A797B695B009A403B699B00F868AA
:101A100003440A431A6000BF1C37BD4680BC7047B0
:101A200000C0024080B487B000AF0346FB710B4694
:101A3000BB7113467B71BB797B61FB795B003B61BA
:101A4000174BFB607B690F2B05D97B69103B7B61D2
:101A50003B6901333B613B699B00FA681344196899
:101A60007B695B00032202FA03F3DA433B699B00C4
:101A7000F86803440A401A603B699B00FA68134403
:101A800019687A797B695B009A403B699B00F8682A
:101A900003440A431A6000BF1C37BD4680BC704730
:101AA00040C0024080B485B000AF0346FB710B46D6
:101AB000BB7113467B71144BFB607B79012B0ED1FC
:101AC000FB799B00FA6813441968BB7901229A409C
:101AD000FB799B00F86803440A431A600FE0FB7926
:101AE0009B00FA6813441968BB79012202FA03F3D8
:101AF000DA43FB799B00F86803440A401A6000BF90
:101B00001437BD4680BC704768C0024080B582B0C3
:101B100000AF78607B6818787B6859787B689B7821
:101B20001A46FFF73FFF7B6818787B6859787B6817
:101B3000DB781A46FFF776FF7B6818787B68597860
:101B40007B681B791A46FFF7ADFF00BF0837BD461B
:101B500080BDFFFF80B586B000AF786039607B68DC
:101B60002A4A934207D07B68294A934203D04321F3
:101B70002848FEF7DBFC7B68244A934204D12A20E4
:101B8000FFF7B6FAB86007E07B68214A934239D183
:101B90001420FFF7ADFAB86000233B614FF0FF332C
:101BA000FB6002237B6117E03B6901337A6902FB2A
:101BB00003F3BA68B2FBF3F3FB60FA683B689A423E
:101BC0000AD93B6901333B613B69FF2B04D90023F0
:101BD0003B617B6902337B61FA683B689A42E3D8D8
:101BE0007B681B68DAB27B681A607B681A683B699D
:101BF0001B029BB21A437B681A607B69DAB27B686E
:101C00001A6100E000BF1837BD4680BD0080084063
:101C100000000340EC32000080B584B000AF786073
:101C200039607B68204A934207D07B681F4A934201
:101C300003D081211E48FEF779FC7B681A4A934243
:101C400005D101214FF40010FFF784FA08E07B680A
:101C5000164A934223D101214FF48060FFF77AFAAC
:101C60003B685A683B689B681A433B681B691A4388
:101C70003B681B6813439BB2FB607B68FA681A6081
:101C80003B68DB6803F00F03FB607B68FA685A600F
:101C90003B685B6919467868FFF75CFF00E000BFAE
:101CA0001037BD4680BD00BF0080084000000340E3
:101CB000EC32000080B582B000AF78607B680A4AE1
:101CC000934207D07B68094A934203D0C021084859
:101CD000FEF72CFC7B681B68DBB203F00F03DBB262
:101CE00018460837BD4680BD00800840000003400C
:101CF000EC32000080B483B000AF78607B680022D3
:101D00005A607B6800229A607B68084A5A617B6847
:101D100007221A607B680022DA607B6800221A6161
:101D200000BF0C37BD4680BC704700BF40420F006B
:101D300080B582B000AF78600B46FB707B68144AB8
:101D4000934207D07B68134A934203D0E52112489F
:101D5000FEF7ECFBFB78002B06D0FB78012B03D0C1
:101D6000E6210D48FEF7E2FBFB78012B06D17B68EC
:101D70005B6843F002027B685A6005E07B685B6841
:101D800003F00D027B685A6000BF0837BD4680BD76
:101D90000080084000000340EC32000080B582B0B3
:101DA00000AF78600B467B807B68094A934208D07D
:101DB0007B68084A934204D04FF49A710648FEF7B4
:101DC000B5FB7A887B689A6000BF0837BD4680BD46
:101DD0000080084000000340EC32000080B582B073
:101DE00000AF78607B68094A934208D07B68084A54
:101DF000934204D04FF4A2710648FEF797FB7B682C
:101E00009B689BB218460837BD4680BD00800840DD
:101E100000000340EC32000080B58CB000AFF860E9
:101E2000B9601346FB71BB680022DA60BB68002210
:101E30005A60BB6800225A6104E0F868FFF7CEFFE1
:101E400003467B61FB68DB6803F00403002BF4D1DD
:101E5000FB6803221A62F868FFF72CFF0346082B81
:101E600002D90123FB6101E00023FB61FB79002B18
:101E700040F0C180FB69002B06D1BB689B68FB6208
:101E8000BB681B68BB6294E0BB689B687B62BB68F5
:101E90001B683B628DE0FB68DB6803F00203002BEC
:101EA00042D0BB685A68BB681B699A423CD0BB6889
:101EB0001B68002B17D1FB69002B09D1FF21F868A3
:101EC000FFF76CFFBB685B685A1CBB685A602BE06D
:101ED0004FF6FF71F868FFF761FFBB685B689A1CFB
:101EE000BB685A6020E0FB69002B0FD1BB6A1B78EE
:101EF0009BB21946F868FFF751FFBB6A0133BB621A
:101F0000BB685B685A1CBB685A600DE03B6A1B8863
:101F10001946F868FFF742FF3B6A02333B62BB6831
:101F20005B689A1CBB685A60FB689B69BB61BB69B4
:101F300003F00103002B30D0BB6943F40072BB688F
:101F40005A614FF0FF330AE1F868FFF747FF034695
:101F50007B61BB689B68002B11D0FB69002B07D10C
:101F60007B69DAB2FB6A1A70FB6A0133FB6206E036
:101F70007B699AB27B6A1A807B6A02337B62FB6957
:101F8000002B05D1BB68DB685A1CBB68DA6004E033
:101F9000BB68DB689A1CBB68DA60FB68DB6803F02F
:101FA0000403002B05D0BB68DA68BB681B699A4242
:101FB000CAD1BB685A68BB681B699A427FF46BAF91
:101FC000BB68DA68BB681B699A427FF464AFBB6880
:101FD0004FF480725A61BB681B68002B02D0BB684B
:101FE0005B68BCE0BB689B68002B02D0BB68DB6809
:101FF000B5E00023B3E0FB79012B40F0AE8089E02F
:10200000BB681B68002B17D1FB69002B09D1FF218E
:10201000F868FFF7C3FEBB685B685A1CBB685A6070
:102020002FE04FF6FF71F868FFF7B8FEBB685B68FA
:102030009A1CBB685A6024E0FB69002B11D1BB6875
:102040001B681A46BB685B6813441B789BB2194631
:10205000F868FFF7A3FEBB685B685A1CBB685A6050
:102060000FE0BB681B681A46BB685B6813441B889B
:102070001946F868FFF792FEBB685B689A1CBB685C
:102080005A60FB689B69BB61BB6903F00103002BCD
:1020900034D0BB6943F40072BB685A614FF0FF3320
:1020A0005DE0F868FFF79AFE03467B61BB689B68BA
:1020B000002B15D0FB69002B09D1BB689B681A4621
:1020C000BB68DB6813447A69D2B21A7008E0BB6857
:1020D0009B681A46BB68DB6813447A6992B21A801F
:1020E000FB69002B05D1BB68DB685A1CBB68DA6052
:1020F00004E0BB68DB689A1CBB68DA60FB68DB68DD
:1021000003F00403002B05D0BB68DA68BB681B69C9
:102110009A42C6D1FB68DB6803F00203002B06D0AD
:10212000BB685A68BB681B699A427FF469AFBB6899
:10213000DA68BB681B699A4205D1BB685A68BB68FC
:102140001B699A4203D0FB680F225A6103E0BB6807
:102150004FF480725A61002301E04FF0FF331846BC
:102160003037BD4680BDFFFFF0B593B000AF78605B
:102170003960002387F847307B68A14A934204D135
:102180000620FEF7B5FF386419E07B689D4A93424C
:1021900004D10820FEF7ACFF386410E07B689A4A4F
:1021A000934204D13020FEF7A3FF386407E07B6838
:1021B000964A934203D13220FEF79AFF38644FF0DB
:1021C000FF33BB6100237B6300233B634FF00002BE
:1021D0004FF00003C7E908230123BB6365E0002338
:1021E000FB6356E03B6C1A464FF0000315091407D9
:1021F000BB6B1A464FF0000302FB05F004FB03F132
:102200004618A4FB020173181946BA6BFB6B134402
:102210003A6802FB03F31A464FF0000300F08CFB10
:1022200002460B46C7E904233B69FB61D7E9040179
:102230004FF000024FF000030A0000231346FB6238
:10224000FB69B3F1004F05D9FB695B42FB61FB6A97
:102250000133FB62FB6A002B17D0FB6AB3F5803FAA
:1022600013D8FA69BB699A4210D2FB69BB61FB6A59
:102270001A464FF00003C7E90823FB6B7B63BB6B77
:102280003B63BB69002B09D000E000BFFB6B01334F
:10229000FB63FA6BBB6B9A42A4D300E000BFBB693F
:1022A000002B06D0BB6B0133BB63BB6B0F2B96D9E6
:1022B00000E000BFD7E90834234301D100239BE0AD
:1022C0003B6C1B093A6B02FB03F318464FF000010D
:1022D0003A6B7B6B13444FF000043A6A04FB02F53F
:1022E0007A6A03FB02F22A443D6AA5FB03342244C6
:1022F00014461A46234600F01FFB03460C46FB60BB
:102300003A68FB689A4204D93A68FB68D31ABB6101
:1023100003E0FA683B68D31ABB61BB69642202FB25
:1023200003F23B68B2FBF3F3BB61BB69022B61D8DC
:102330007B68344A93422BD17B681B7BDBB263F012
:102340007F03DAB27B681A73D7E908124FF00003F3
:102350004FF000040B0A43EA0263140ADAB27B6806
:102360001A7197F820207B681A707B681B7BDBB2A0
:1023700003F07F03DAB27B681A733B6B1B01DAB29E
:102380007B6B03F00F031343DAB27B689A622EE093
:102390007B681B7BDBB263F07F03DAB27B681A7366
:1023A000D7E908124FF000034FF000040B0A43EA8C
:1023B0000263140ADAB27B681A7197F820207B68EE
:1023C0001A707B681B7BDBB203F07F03DAB27B6899
:1023D0001A733B6BDBB21B01DAB27B6BDBB203F02F
:1023E0000F03DBB21343DAB27B6883F828200123A2
:1023F00087F8473097F8473018464C37BD46F0BD50
:1024000000C00040000001400080094000C00940B9
:1024100080B584B000AF786039607B68A44A93428D
:102420000FD07B68A34A93420BD07B68A24A9342A9
:1024300007D07B68A14A934203D0C921A048FEF788
:1024400075F83B685B79002B0FD03B685B79012BFB
:102450000BD03B685B79022B07D03B685B79032B81
:1024600003D0CA219648FEF761F83B689B79002BA0
:1024700007D03B689B79012B03D0CB219048FEF716
:1024800055F83B681B79002B13D03B681B79012B57
:102490000FD03B681B79022B0BD03B681B79032BB9
:1024A00007D03B681B79042B03D0CC218448FEF76E
:1024B0003DF87B687E4A934203D101210820FEF754
:1024C00049FE7B687B4A934203D101211020FEF72D
:1024D00041FE7B68784A934204D101214FF080701D
:1024E000FEF738FE7B68754A934204D101214FF014
:1024F0000070FEF72FFE7B686E4A934242D17B68E4
:1025000007221A727B6800221A7203E07B681B782C
:10251000DBB2FB607B681B7DDBB203F00103002BA9
:10252000F4D17B68802283F8302000BF7B681B7D5C
:10253000DBB203F02003002BF8D07B68002283F885
:1025400030207B6800225A607B6800221A737B6807
:1025500000221A627B6800221A747B68002283F8CA
:102560004C207B68002283F854207B68002283F88B
:1025700050207B681B7EDBB2FB607B681B7DDBB27F
:10258000FB602EE07B6807221A727B6800221A72B9
:1025900003E07B681B78DBB2FB607B681B7DDBB2F2
:1025A00003F00103002BF4D17B68802283F83020F4
:1025B00000BF7B681B7DDBB203F02003002BF8D04B
:1025C0007B68002283F830207B6800225A607B6899
:1025D00000221A737B6800221A627B681B7DDBB2C3
:1025E000FB607B68354A934203D17B68002283F805
:1025F00024203B681B6819467868FFF7B5FD7B68A7
:102600002C4A934206D17B681B7BDBB203F0C003EC
:10261000FB6005E07B681B7BDBB203F0C003FB6063
:102620003B685B79012B04D0022B07D0002B0FD025
:1026300009E0FB6843F00103FB600AE0FB6843F03C
:102640000203FB6005E0FB6843F00303FB6000E06E
:1026500000BF3B681B79002B24D0FB6843F00803C4
:10266000FB603B681B79013B032B1AD801A252F88F
:1026700023F000BFA3260000852600008F2600005F
:1026800099260000FB6843F01003FB600AE0FB683A
:1026900043F02003FB6005E0FB6843F03003FB6080
:1026A00000E000BF3B689B79012B0BD00FE000BF1F
:1026B00000C00040000001400080094000C0094007
:1026C00004330000FB6843F00403FB6000BF7B6839
:1026D000074A934204D1FB68DAB27B681A7303E0BD
:1026E000FB68DAB27B681A7300BF1037BD4680BD45
:1026F0000000014080B582B000AF78600B46FB70EF
:102700007B68114A934210D07B68104A93420CD0E8
:102710007B680F4A934208D07B680E4A934204D0EC
:1027200040F2D9110C48FDF701FF7B68074A93423C
:1027300003D17B68FA781A7002E07B68FA781A7025
:1027400000BF0837BD4680BD00C00040000001400A
:102750000080094000C009400433000080B58AB001
:1027600000AFF860B9607A60FB70BB687B617B6822
:102770007B62FB78012B36D100233B622FE04FF0C8
:10278000FF33FB6105E0FB69002B0AD0FB69013BCD
:10279000FB61FB681B7DDBB203F02003002BF2D052
:1027A00000E000BFFB69002B45D01023BB6110E0A7
:1027B0007B695A1C7A611B781946F868FFF79AFF03
:1027C000BB69013BBB617B6A013B7B623B6A0133B6
:1027D0003B62BB69002B02D07B6A002BE8D17B6A8D
:1027E000002BCCD12AE000233B6220E0FB681B7D5C
:1027F000DBB203F02003002B1FD01023BB6110E0DD
:102800007B695A1C7A611B781946F868FFF772FFDA
:102810007B6A013B7B62BB69013BBB613B6A013365
:102820003B62BB69002B02D07B6A002BE8D17B6A3C
:10283000002BDBD102E000BF00E000BF3B6A18467E
:102840002837BD4680BDFFFF80B582B000AF7860FD
:102850000B46FB707B68294A934210D07B68284A5C
:1028600093420CD07B68274A934208D07B68264A63
:10287000934204D040F2EA312448FDF757FEFB783A
:10288000002B07D0FB78012B04D040F2EB311F481E
:10289000FDF74CFEFB78012B19D17B68184A934257
:1028A0000AD17B6893F83030DBB263F07F03DAB291
:1028B0007B6883F830201DE07B6893F83030DBB212
:1028C00063F07F03DAB27B6883F8302012E07B6824
:1028D0000B4A934207D17B6893F830307B68002223
:1028E00083F8302006E07B6893F830307B68002264
:1028F00083F8302000BF0837BD4680BD00C00040CF
:10290000000001400080094000C00940043300007D
:1029100080B582B000AF78603960386800F04EFA58
:1029200003461A46012339687868FFF717FF034604
:1029300018460837BD4680BD53B94AB9002908BFBB
:1029400000281CBF4FF0FF314FF0FF3000F074B98A
:10295000ADF1080C6DE904CE00F006F8DDF804E0F6
:10296000DDE9022304B070472DE9F0478C460446A8
:10297000089E002B4BD18A42154667D9B2FA82F2E3
:102980004AB1C2F1200701FA02F320FA07F7954095
:1029900047EA030C94404FEA154EBCFBFEF71FFAC2
:1029A00085F80EFB17C307FB08F9210C41EA034326
:1029B000994509D9EB1807F1FF3180F01C81994541
:1029C00040F21981023F2B44A3EB0903B3FBFEF055
:1029D0000EFB103300FB08F1A4B244EA0344A14209
:1029E00009D92C1900F1FF3380F00781A14240F290
:1029F000048102382C4440EA07400027641A1EB1C3
:102A00000023D440C6E900433946BDE8F0878B4235
:102A100009D9002E00F0EC800027C6E900013846F5
:102A20003946BDE8F087B3FA83F7002F48D18B42CF
:102A300002D3824200F2FB80841A61EB030301207F
:102A40009C46002EE0D0C6E9004CDDE702B9FFDE6F
:102A5000B2FA82F2002A40F08F800127491B4FEA28
:102A600015481FFA85F9B1FBF8FE08FB1E1109FB9A
:102A70000EF04FEA144C4CEA0143984207D9EB1888
:102A80000EF1FF3102D2984200F2CD808E461B1A21
:102A9000B3FBF8F008FB103309FB00F9A4B244EAD9
:102AA0000344A14507D92C1900F1FF3302D2A145F7
:102AB00000F2B6801846A4EB090440EA0E409EE7F7
:102AC000C7F12005BB4022FA05FC4CEA030C21FAB1
:102AD00005F44FEA1C4EB4FBFEF91FFA8CF80EFB0E
:102AE000194420FA05F3B94009FB08FA19430B0C05
:102AF00043EA0444A24502FA07F200FA07F30BD9AD
:102B00001CEB040409F1FF3080F08880A24540F2FC
:102B10008580A9F102096444A4EB0A04B4FBFEF029
:102B20000EFB104400FB08FA89B241EA0444A245B6
:102B300008D91CEB040400F1FF316BD2A24569D91E
:102B40000238644440EA0940A0FB0289A4EB0A046D
:102B50004C454146CE4654D351D0002E69D05A1A26
:102B600064EB0E0404FA05F522FA07F3FC401D435A
:102B7000C6E90054002747E79540C2F1200321FA37
:102B800003F04FEA1548B0FBF8F71FFA85F908FB88
:102B9000170024FA03F3914007FB09FC0B43190CBF
:102BA00041EA00418C4504FA02F407D9691807F19B
:102BB000FF3031D28C452FD9023F2944A1EB0C01C3
:102BC000B1FBF8F008FB101C00FB09FE99B241EACA
:102BD0000C418E4507D9691800F1FF3318D28E4594
:102BE00016D902382944A1EB0E0140EA07473AE71B
:102BF0003746304608E70F46E6E61846FBE643450B
:102C0000ABD2B8EB020169EB0C0201389646A4E79F
:102C10001846E8E7084695E70746CFE781467BE791
:102C200002382C4447E7AEF1020E2B442FE738461A
:102C300007E73746E8E600BF704700BF844641EA31
:102C4000000313F0030349D1403A23D30B68036018
:102C50004B6843608B688360CB68C3600B6903611A
:102C60004B6943618B698361CB69C3610B6A036202
:102C70004B6A43628B6A8362CB6AC3620B6B0363EA
:102C80004B6B43638B6B8363CB6BC36340304031CF
:102C9000403ADBD230320BD30B6803604B684360A1
:102CA0008B688360CB68C36010301031103AF3D268
:102CB0000C3205D351F8043B40F8043B043AF9D2F6
:102CC000043208D0D2071CBF11F8013B00F8013BC9
:102CD00001D30B8803806046704700BF082A13D3D6
:102CE0008B07B1D010F00303AED0C3F10403D21AA6
:102CF000DB071CBF11F8013B00F8013BA4D331F8FE
:102D0000023B20F8023B9FE7043AD9D3013A11F87D
:102D1000013B00F8013BF9D20B7803704B7843700C
:102D20008B78837060467047F0B4860743D0541E9A
:102D3000002A3ED0CAB2034602E014F1FF3438D371
:102D400003F8012B9D07F8D1032C2BD9CDB245EA0E
:102D500005250F2C45EA054516D9A4F110073F09B2
:102D600003F1200606EB071603F1100242E90455B1
:102D700042E902551032B242F8D104F00F04013793
:102D8000032C03EB07130DD91E462246043A032AEF
:102D900046F8045BFAD8221F22F0030204321344DF
:102DA00004F003042CB1C9B21C4403F8011B9C427B
:102DB000FBD1F0BC704714460346C5E720F0030181
:102DC00010F00300C0F1000051F8043B00F1040CC6
:102DD0004FEACC0C6FF000021CBF22FA0CF2134336
:102DE0004FF0010C4CEA0C2C4CEA0C4CA3EB0C02FF
:102DF00022EA030212EACC1204BF51F8043B043069
:102E0000F4D0C2F1000102EA0102B2FA82F2C2F188
:102E10001F0200EBD2007047506C61792F5265732E
:102E2000756D65004E65787420736F756E64000073
:102E300050726576696F757320736F756E640000EC
:102E4000536561726368000043322E43322C443470
:102E50002C43342C46342C45382C00004D4D433A3D
:102E6000206E6F7420696E697469616C697A65643B
:102E70000D0A00004D4D433A204E6F204469736B9C
:102E80000D0A00004D4D433A20496E697469616C2A
:102E9000697A65640D0A0000447269766520736979
:102EA0007A653A202564200D0A000000536563749A
:102EB0006F722073697A653A202564200D0A00003C
:102EC000457261736520626C6F636B2073697A650C
:102ED0003A202564200D0A004361726420747970E1
:102EE000653A202564200D0A000000004661696CE7
:102EF000656420746F206D6F756E7420303A2025E4
:102F000064200D0A000000002F0000004661696C7B
:102F1000656420746F206F70656E202F3A202564E1
:102F2000200D0A00665F6F70656E28292066616952
:102F30006C656421210D0A000D0A0000706572693C
:102F400070686572616C7320696E697469616C691F
:102F50007A65642E0D0A000073746F7265496E45C0
:102F60006570726F6D2829204661696C6564210D5A
:102F70000A00000072656164456570726F6D2829F2
:102F8000204661696C6564210D0A000030313233DE
:102F90003435363738396162636465666768696AF3
:102FA0006B6C6D6E6F707172737475767778797AF9
:102FB00000FFFFFF80402010080402010000000015
:102FC000000000008080808080008000A0A0A00021
:102FD000000000005050F850F85050002078A070C9
:102FE00028F02000C0C81020409818006090A04031
:102FF000A8906800C0408000000000002040808051
:10300000804020008040202020408000005020F898
:1030100020500000002020F82020000000000000C8
:1030200000C04080000000F8000000000000000028
:1030300000C0C0000008102040800000708898A8E0
:10304000C888700020602020202070007088083020
:103050004080F80070880830088870001030509068
:10306000F8101000F880F00808887000304080F0F8
:1030700088887000F80810204040400070888870F0
:1030800088887000708888780810600000C0C000D0
:10309000C0C000000000C0C000C0408010204080C0
:1030A000402010000000F800F800000080402010D0
:1030B0002040800070880810200020007088086878
:1030C000A8A87000708888F888888800F08888F040
:1030D0008888F0007088808080887000E090888800
:1030E0008890E000F88080F08080F800F88080F020
:1030F000808080007088808098887800888888F830
:1031000088888800E04040404040E00038101010BF
:10311000109060008890A0C0A0908800808080807F
:103120008080F80088D8A8A8888888008888C8A8DF
:10313000988888007088888888887000F08888F06F
:103140008080800070888888A8906800F08888F067
:10315000A09088007088807008887000F820202077
:10316000202020008888888888887000888888883F
:1031700088502000888888A8A8A8500088885020F7
:10318000508888008888502020202000F8081020CF
:103190004080F800E08080808080E0000080402057
:1031A00010080000E02020202020E00020508800AF
:1031B0000000000000000000000000F88040200037
:1031C0000000000000007008788878008080B0C897
:1031D0008888F0000000609080906000080868987F
:1031E0008888780000007088F8807000205040E0E7
:1031F0004040400000007888887808708080B0C81F
:103200008888880040004040404040002000602006
:10321000202020C0808090A0C0A09000C0404040EE
:103220004040E0000000D0A8A88888000000B0D08E
:103230009090900000006090909060000000E090FE
:1032400090E080800000709090701010000050603E
:1032500040404000000070806010E0004040E040CE
:1032600040406000000090909090700000008888BE
:103270008850200000008888A8A8500000008850CE
:103280002050880000009090907010600000F810AE
:103290002040F80020404080404020004040404016
:1032A0004040400080404020404080006890000046
:1032B00000000000F8F8F8F8F8F8F8002E2E2F7348
:1032C00072632F6C7063313778785F6164632E634B
:1032D00000FFFFFF2E2E2F7372632F6C7063313748
:1032E00078785F6932632E6300FFFFFF2E2E2F7305
:1032F00072632F6C7063313778785F7373702E63ED
:1033000000FFFFFF2E2E2F7372632F6C7063313717
:0C33100078785F756172742E6300FFFF17
:08331C004CF6FF7F01000000E8
:0433240000E1F505CA
:04000003000000F504
:00000001FF
